:100000000C94DA0E0C940B0F0C940B0F0C940B0F3A
:100010000C940B0F0C940B0F0C940B0F0C940B0FF8
:100020000C940B0F0C940B0F0C940B0F0C940B0FE8
:100030000C940B0F0C94BDB80C940B0F0C940B0F7D
:100040000C940B0F0C949A6A0C940B0F0C940B0FDE
:100050000C940B0F0C940B0F0C94207B0C9478B227
:100060000C940B0F0C9474150C940B0F0C940B0F39
:100070000C940B0F0C940B0F0C940B0F0C940B0F98
:100080000C940B0F0C940B0F0C940B0F0C940B0F88
:100090000C940B0F0C940B0F0C940B0F0C940B0F78
:1000A0000C940B0F0C940B0F0C940B0F0C940B0F68
:1000B0000C940B0F0C940B0F0C940B0F0C940B0F58
:1000C0000C940B0F0C940B0F0C940B0F0C940B0F48
:1000D0000C940B0F0C940B0F0C940B0F0C940B0F38
:1000E0000C940B0F7A7B897BA57BB47BCE7BDD7B6D
:1000F000F77BFB7BFD7B017C097CB9B3BEB3C3B34B
:10010000CDB3D7B350B4E1B3E9B3F1B3FBB305B4A6
:100110000FB41EB428B450B432B43CB446B472B474
:1001200075B464B468B46EB4ACB479B47DB483B45B
:1001300087B48BB491B495B499B4ACB49FB4A3B460
:10014000A7B4084AD73B3BCE016E84BCBFFDC12F8C
:100150003D6C74319ABD56833DDA3D00C77F11BEB8
:10016000D9E4BB4C3E916BAAAABE000000803F05BB
:10017000A84CCDB2D44EB93836A9020C50B99186EC
:1001800088083CA6AAAA2ABE000000803F00486159
:100190007264636F6465642044656661756C742085
:1001A00053657474696E6773204C6F616465640095
:1001B00053746F7265642073657474696E6773201D
:1001C0007265747269657665640020440020490098
:1001D0002020204D33303120500050494420736599
:1001E0007474696E67733A00205A00205900202009
:1001F0004D323036205800486F6D65206F6666734B
:10020000657420286D6D293A00204500205A002091
:10021000580020420020540020204D323035205319
:1002200000416476616E6365642076617269616223
:100230006C65733A20533D4D696E20666565647246
:1002400061746520286D6D2F73292C20543D4D69F4
:100250006E2074726176656C206665656472617487
:100260006520286D6D2F73292C20423D6D696E69C4
:100270006D756D207365676D656E742074696D654D
:1002800020286D73292C20583D6D6178696D756D3E
:10029000205859206A65726B20286D6D2F73292CA8
:1002A00020205A3D6D6178696D756D205A206A6510
:1002B000726B20286D6D2F73292C2020453D6D61B8
:1002C00078696D756D2045206A65726B20286D6DAB
:1002D0002F73290020540020204D32303420530049
:1002E000416363656C65726174696F6E3A20533D5A
:1002F000616363656C65726174696F6E2C20543D37
:100300007265747261637420616363656C657261A8
:1003100074696F6E00204500205A0020590020208B
:100320004D3230312058004D6178696D756D204136
:100330006363656C65726174696F6E20286D6D2FE3
:100340007332293A00204500205A0020590020200D
:100350004D3230332058004D6178696D756D2066DF
:10036000656564726174657320286D6D2F73293A19
:1003700000204500205A0020590020204D3932200D
:10038000580053746570732070657220756E6974BF
:100390003A0053657474696E67732053746F7265A5
:1003A00064005A6174727A796D616E792E20005002
:1003B00072696E7465722073746F70706564206406
:1003C000756520746F206572726F72732E20466996
:1003D0007820746865206572726F7220616E642087
:1003E000757365204D39393920746F2072657374C7
:1003F0006172742E202854656D7065726174757217
:10040000652069732072657365742E2053657420AE
:1004100069742061667465722072657374617274A8
:10042000696E67290055626974792E2000507269DF
:100430006E7465722068616C7465642E206B696CE3
:100440006C28292063616C6C656421006F6B00521D
:100450006573656E643A20002200556E6B6E6F778F
:100460006E20636F6D6D616E643A2022005A6D6973
:10047000656E2066696C616D656E74004F666673AB
:100480006574205A203A20007A5F6D61783A200026
:100490007A5F6D696E3A20004F6666736574205A04
:1004A000004F6666736574205A206F6B007A5F6D2B
:1004B00061783A20007A5F6D696E3A2000795F6D4D
:1004C00061783A2000795F6D696E3A2000785F6D3F
:1004D00061783A2000785F6D696E3A2000205A3AC0
:1004E0000020593A0020436F756E7420583A20005E
:1004F00020453A00205A3A0020593A00583A00461E
:1005000049524D574152455F4E414D453A4D6172FA
:100510006C696E2056312E302E323B20537072693A
:100520006E7465722F6772626C206D61736875708E
:1005300020666F722067656E36204649524D5741DE
:1005400052455F55524C3A68747470733A2F2F6756
:1005500069746875622E636F6D2F4D61726C696E80
:100560004669726D776172652F4D61726C696E209C
:1005700050524F544F434F4C5F56455253494F4E84
:100580003A312E30204D414348494E455F54595031
:10059000453A546F7765722058502045585452554B
:1005A0004445525F434F554E543A312055554944C6
:1005B0003A30303030303030302D303030302D3037
:1005C0003030302D303030302D3030303030303031
:1005D00030303030300A00546F7765722058502028
:1005E00057796C2E2E00546F776572205850206713
:1005F0006F746F77792E0042656420646F6E652E8C
:100600000020423A0020453A00543A0042656420F6
:1006100048656174696E672E0048656174696E672C
:1006200020646F6E652E0020573A0020453A005432
:100630003A0048656174696E672E2E2E0020424094
:100640003A0020403A00202F003A00205400202F8A
:100650000020423A00202F006F6B20543A00256999
:10066000206D696E2C2025692073656300456E64DA
:100670002066696C65206C69737400426567696EF9
:100680002066696C65206C697374004272616B202E
:10069000727563687500546F7765722058502067D3
:1006A0006F746F77792E00577A6E617769616E6922
:1006B00065206472756B75004F637A656B6977614D
:1006C0006E69652E2E2E00557370696A2E2E2E00CF
:1006D000256920686F757273202569206D696E75B4
:1006E00074657300446F6E65207072696E74696E14
:1006F000672066696C65005A6174727A796D616E03
:10070000792E20005072696E7465722073746F7058
:100710007065642064756520746F206572726F72F5
:10072000732E2046697820746865206572726F7236
:1007300020616E6420757365204D39393920746FDE
:1007400020726573746172742E202854656D706513
:100750007261747572652069732072657365742E99
:100760002053657420697420616674657220726517
:100770007374617274696E6729004E6F204C696EE4
:1007800065204E756D6265722077697468206368B4
:1007900065636B73756D2C204C617374204C696EAE
:1007A000653A20004E6F20436865636B73756D205A
:1007B00077697468206C696E65206E756D6265720C
:1007C0002C204C617374204C696E653A200063687C
:1007D00065636B73756D206D69736D617463682CEF
:1007E000204C617374204C696E653A20004C696E30
:1007F00065204E756D626572206973206E6F74207E
:100800004C617374204C696E65204E756D62657223
:100810002B312C204C617374204C696E653A20009A
:100820004D31313000446F6E6520736176696E67BB
:100830002066696C652E006F6B004D3239002020F8
:10084000506C616E6E65724275666665724279744F
:1008500065733A20002046726565204D656D6F72A4
:10086000793A20004A756C2031322032303136001E
:10087000436F6D70696C65643A2000286E6F6E6519
:100880002C2064656661756C7420636F6E666967A1
:100890002900207C20417574686F723A20004A75E7
:1008A0006C20313220323031362031323A34373A0E
:1008B000333100204C617374205570646174656439
:1008C0003A2000312E302E32004D61726C696E007C
:1008D00020536F667477617265205265736574008A
:1008E000205761746368646F672052657365740094
:1008F0002042726F776E206F757420526573657435
:10090000002045787465726E616C20526573657461
:1009100000506F77657255700073746172740022B5
:1009200000656E717565696E672022002200656E34
:10093000717565696E67202200FFFFFF0000A0400F
:100940000000A0400000004000004D43000016439E
:10095000000016430000000000000000000000003E
:1009600000004D4300001643000016430000000045
:1009700000000000000000006563686F3A004572E7
:10098000726F723A007C3C3E5E2B3D3F2F5B5D3BBD
:100990002C2A225C004D383420582059205A2045FA
:1009A0000043616E6E6F7420656E7465722073759E
:1009B000626469723A20004D3234004D3233202592
:1009C00073006175746F25692E67006572726F72AE
:1009D0002077726974696E6720746F2066696C6530
:1009E000004E6F74205344207072696E74696E6794
:1009F000002F005344207072696E74696E67206224
:100A000079746520002E0044656C6574696F6E20F2
:100A10006661696C65642C2046696C653A20004605
:100A2000696C652064656C657465643A002E006FBE
:100A300070656E206661696C65642C2046696C6522
:100A40003A200057726974696E6720746F20666976
:100A50006C653A20002E006F70656E206661696CCF
:100A600065642C2046696C653A20002E006F706525
:100A70006E206661696C65642C2046696C653A205D
:100A80000046696C652073656C656374656400205D
:100A900053697A653A200046696C65206F70656E0F
:100AA00065643A20002E006F70656E206661696C87
:100AB00065642C2046696C653A20004E6F7720668D
:100AC000726573682066696C653A20004E6F772006
:100AD000646F696E672066696C653A200022207039
:100AE0006F73002220706172656E743A2200535554
:100AF00042524F5554494E452043414C4C2074615D
:100B0000726765743A2200747279696E6720746F37
:100B10002063616C6C207375622D67636F64652060
:100B200066696C6573207769746820746F6F206DD7
:100B3000616E79206C6576656C732E204D4158206E
:100B40006C6576656C2069733A005344206361726A
:100B500064206F6B006F70656E526F6F74206661FA
:100B6000696C656400766F6C756D652E696E69746D
:100B7000206661696C656400534420696E69742065
:100B80006661696C0020746F6F206C6F6E67206502
:100B90007874727573696F6E2070726576656E74A5
:100BA00065640020636F6C64206578747275736986
:100BB0006F6E2070726576656E74656400656E6434
:100BC00073746F7073206869743A205A00205A3A1F
:100BD00000656E6473746F7073206869743A20598D
:100BE0000020593A00656E6473746F7073206869F1
:100BF000743A20580020583A00656E6473746F7020
:100C000073206869743A200024F4D43050C38E20D5
:100C1000C2A24017828B7011127A910D816CD90A91
:100C2000A861E108C7586607615143061E4B5D0580
:100C3000C145A7041A411104093D980371393103D4
:100C40004036DB0265339102D4305402802E1D02FF
:100C5000632CEE01752AC501B028A001102781017F
:100C60008F2564012B244B01E0223401AC211F01AC
:100C70008D200D01801FFC00841EED00971DDF00FC
:100C8000B81CD200E61BC600201BBC00641AB200D0
:100C9000B219A8000A19A0006A189900D11791008A
:100CA00040178B00B516840031167E00B31579000D
:100CB0003A157300C7146F0058146A00EE136600EB
:100CC0008813630025135E00C7125B006C12570087
:100CD00015125400C111510070114F0021114B0029
:100CE000D61049008D104700461044000210420003
:100CF000C00F4000800F3E00420F3C00060F3B003B
:100D0000CB0E3800930E37005C0E3500270E3400F2
:100D1000F30D3200C10D3100900D3000600D2E003A
:100D2000320D2D00050D2C00D90C2B00AE0C290026
:100D3000850C29005C0C2700350C27000E0C2600C2
:100D4000E80B2400C40B2400A00B23007D0B230020
:100D50005A0B2100390B2100180B2000F80A1F0044
:100D6000D90A1E00BB0A1E009D0A1D00800A1D0034
:100D7000630A1C00470A1B002C0A1B00110A1A00F8
:100D8000F7091A00DD091900C4091900AB09190097
:100D9000920917007B091800630917004C09160017
:100DA00036091600200916000A091500F508150075
:100DB000E0081400CC081400B8081400A4081400BB
:100DC000900813007D0812006B08130058081200E9
:100DD00046081200340811002308110012081100FF
:100DE00001081100F0071000E0071000D007100004
:100DF000C0071000B0070F00A107100091070E00F8
:100E000083070F0074070F0065070E0057070E00D9
:100E100049070E003B070D002E070E0020070D00AE
:100E200013070D0006070D00F9060C00ED060D0076
:100E3000E0060C00D4060C00C8060C00BC060C0032
:100E4000B0060C00A4060B0099060C008D060B00E2
:100E500082060B0077060B006C060B0061060A0089
:100E600057060B004C060A0042060A0038060A0024
:100E70002E060A0024060A001A060A0010060900B7
:100E800007060A00FD050900F4050900EB05090045
:100E9000E2050900D9050900D0050900C7050900C8
:100EA000BE050900B5050800AD050800A505090047
:100EB0009C050800940508008C05080084050800BE
:100EC0007C050800740508006C050700650508002E
:100ED0005D050700560508004E0507004705070099
:100EE0004005080038050700310507002A050700FE
:100EF000230507001C050600160507000F0507005F
:100F00000805060002050700FB040600F5040700BB
:100F1000EE040600E8040600E2040700DB04060015
:100F2000D5040600CF040600C9040600C304060069
:100F3000BD040600B7040600B1040500AC040600B9
:100F4000A6040600A00405009B0406009504050005
:100F5000900406008A04050085040500800406004C
:100F60007A04050075040500700405006B04050093
:100F700066040500610405005C04050057040500D3
:100F8000520405004D040500480405004304050013
:100F90003E0404003A040500350405003004040052
:100FA0002C04050027040400230405001E0404008B
:100FB0001A04040016040500110404000D040400C2
:100FC000090405000404040000040400FC030400F8
:100FD000F8030400F4030400F0030400EC0304002D
:100FE000E8030400E4030400E0030400DC0304005D
:100FF000D8030400D4030400D0030400CC0304008D
:10100000C8030300C503030024F404D9201BC40C47
:101010005C0E9804C4095F0265077101F405F900CC
:10102000FB04B30048048700C1036900580355005E
:1010300003034500BE023A008402310053022A0035
:101040002902250004022000E4011C00C801190047
:10105000AF01170098011400840113007101100002
:101060006101100051010E0043010D0036010B001B
:101070002B010B0020010B00150109000C010900D8
:1010800003010800FB000800F3000800EB00070064
:10109000E4000600DE000600D8000600D2000600CC
:1010A000CC000500C7000500C2000500BD0004001B
:1010B000B9000400B5000400B1000400AD00040054
:1010C000A9000400A5000300A20003009F00040083
:1010D0009B000300980003009500020093000300AA
:1010E000900003008D0002008B00030088000200C6
:1010F0008600020084000300810002007F000200DD
:101100007D0002007B0002007900020077000100F0
:1011100076000200740002007200010071000200FB
:101120006F0002006D0001006C0002006A00010007
:10113000690002006700010066000100650001000F
:101140006400020062000100610001006000010013
:101150005F0002005D0001005C0001005B00010017
:101160005A00010059000100580001005700010019
:10117000560001005500010054000100530000001A
:101180005300010052000100510001005000010015
:101190004F0001004E0000004E0001004D00010014
:1011A0004C0001004B0000004B0001004A00010010
:1011B000490001004800000048000100470001000C
:1011C0004600000046000100450000004500010007
:1011D0004400010043000000430001004200000001
:1011E00042000100410000004100010040000100F8
:1011F0003F0000003F0001003E0000003E000100F3
:101200003D0000003D0001003C0000003C000000EB
:101210003C0001003B0000003B0001003A000000E0
:101220003A000100390000003900010038000000D8
:1012300038000000380001003700000037000100CE
:1012400036000000360000003600010035000000C6
:1012500035000000350001003400000034000000BB
:1012600034000100330000003300000033000100AF
:1012700032000000320000003200010031000000A6
:10128000310000003100010030000000300000009B
:10129000300001002F0000002F0000002F00000090
:1012A0002F0001002E0000002E0000002E00010083
:1012B0002D0000002D0000002D0000002D00010079
:1012C0002C0000002C0000002C0000002C0001006D
:1012D0002B0000002B0000002B0000002B00010061
:1012E0002A0000002A0000002A0000002A00010055
:1012F000290000002900000029000000290000004A
:10130000290001002800000028000000280000003B
:10131000280000002800010027000000270000002E
:101320002700000027000000270001002600000021
:101330002600000026000000260000002600010014
:101340002500000025000000250000002500000009
:1013500025000000250001002400000024000000FA
:1013600024000000240000002400010023000000ED
:1013700023000000230000002300000023000000E1
:1013800023000000230001002200000022000000D2
:1013900022000000220000002200000022000100C4
:1013A00021000000210000002100000021000000B9
:1013B00021000000210000002100010020000000A9
:1013C000200000002000000020000000200000009D
:1013D0002000000020000000200001001F0000008D
:1013E0001F0000001F0000001F0000001F00000081
:1013F0001F0000001F0001001E0000001E00000072
:101400001E0000001E0000004572723A204D494E39
:1014100054454D50003A20457874727564657220C9
:101420007377697463686564206F66662E204D4922
:101430004E54454D5020747269676765726564202B
:1014400021004572723A204D415854454D50003AA2
:101450002045787472756465722073776974636867
:101460006564206F66662E204D415854454D5020CE
:10147000747269676765726564202100202D2049B8
:101480006E76616C6964206578747275646572202B
:101490006E756D626572202100504944204175745B
:1014A0006F74756E652066696E6973686564212066
:1014B00050757420746865206C617374204B702CB7
:1014C000204B6920616E64204B6420636F6E7374DF
:1014D000616E74732066726F6D2061626F76652035
:1014E000696E746F20436F6E6669677572617469A7
:1014F0006F6E2E6800504944204175746F74756E8C
:1015000065206661696C6564212074696D656F751D
:10151000740020403A006F6B20543A006F6B2042F9
:101520003A00504944204175746F74756E652066A9
:1015300061696C6564212054656D706572617475B4
:10154000726520746F6F206869676800204B643A89
:101550002000204B693A2000204B703A20002043A5
:101560006C61737369632050494420002054753ABC
:101570002000204B753A2000206D61783A20002031
:101580006D696E3A200020643A2000206269617320
:101590003A200070012C0190012701B0012201C006
:1015A000011D01F00118011002130130020E01604B
:1015B00002090190020401C002FF000003FA00408A
:1015C00003F5008003F000D003EB002004E6007078
:1015D00004E100E004DC004005D700C005D2004073
:1015E00006CD00D006C8008007C3003008BE00F05A
:1015F00008B900C009B400B00AAF00B00BAA00D00F
:101600000CA500000EA000500F9B00C010960050CB
:1016100012910000148C00C0158700B0178200B032
:10162000197D00D01B7800001E730040206E0090D2
:10163000226900F024640040275F0090295A00E0EE
:101640002B5500102E500020304B0010324600E089
:1016500033410090353C001037370070383200A01D
:10166000392D00B03A2800A03B2300603C1E00103A
:101670003D1900903D1400103E0F00703E0A00C05E
:101680003E0500003F00004B617274612075737568
:101690006E69657461004B6172746120776C6F7A5A
:1016A0006F6E61004D333030205336393820503260
:1016B0003030004D33303020533635392050323001
:1016C00030002D2D3A2D2D002D2D2D0053440020BE
:1016D00059000120004D363030005A6D69656E208A
:1016E00066696C616D656E740050727A65706C79B4
:1016F0007720300050727A65706C79772030005016
:10170000727A65706C79770050727A65706C79774F
:10171000004F62726F7479207769617472616B61D6
:10172000004F62726F7479207769617472616B61C6
:10173000004479737A61004479737A61005072656C
:10174000646B6F736300507265646B6F7363004DFD
:10175000656E7520676C6F776E6500580059005A8A
:1017600000457874727564657200456B73747275A8
:101770007A6A6120286F732045290050727A657358
:10178000756E2077205A0050727A6573756E2077D7
:1017900020590050727A6573756E20772058005278
:1017A000756368206F73690050727A65737577612D
:1017B0006A20636F202E316D6D0050727A657375EB
:1017C00077616A20636F20316D6D0050727A6573A6
:1017D0007577616A20636F2031306D6D0050727AC9
:1017E00079676F74756A0052756368206F7369005A
:1017F0004D383000576C61637A207A6173696C618F
:10180000637A004D38310057796C61637A207A61D0
:1018100073696C61637A0043686C6F647A656E69A2
:101820006500526F7A67727A656A204142530052AE
:101830006F7A67727A656A20504C41005365742054
:10184000686F6D65206F6666736574730047323824
:10185000004175746F2E20706F7A2E207A65726F3A
:101860007761004D38340057796C61637A20736971
:101870006C6E696B69004D656E7520676C6F776E75
:1018800065005A617069737A20772070616D6965AF
:101890006369004479737A61004479737A61004F17
:1018A00062726F7479207769617472616B61004F45
:1018B00062726F7479207769617472616B61005430
:1018C000656D7065726174757261005A61706973DB
:1018D0007A20772070616D69656369004479737A55
:1018E00061004479737A61004F62726F7479207776
:1018F00069617472616B61004F62726F74792077F5
:1019000069617472616B610054656D7065726174B8
:101910007572610055737461772E20726F7A672E2D
:10192000204142530055737461772E20726F7A679D
:101930002E20504C41005049442D43005049442D25
:1019400043005049442D44005049442D440050491F
:10195000442D49005049442D49005049442D500020
:101960005049442D50002002204D6E6F7A6E696BF5
:10197000002002204D6E6F7A6E696B002002204DB0
:101980006178002002204D6178002002204D696EB0
:10199000002002204D696E0057796C2E00576C2E86
:1019A000200057796C2E00576C2E20004175746F03
:1019B0002E2074656D7065726174757261004F627E
:1019C000726F7479207769617472616B61004F6224
:1019D000726F7479207769617472616B6100447908
:1019E000737A61004479737A610055737461776921
:1019F000656E6961006B726F6B69452F6D6D006B71
:101A0000726F6B69452F6D6D006B726F6B695A2F2A
:101A10006D6D006B726F6B695A2F6D6D006B726F1D
:101A20006B69592F6D6D006B726F6B69592F6D6DFE
:101A3000006B726F6B69582F6D6D006B726F6B6905
:101A4000582F6D6D00412D7779636F66616E696502
:101A500000412D7779636F66616E696500416D6144
:101A6000786500416D61786500416D61787A00416B
:101A70006D61787A00416D61787900416D617879A6
:101A800000416D61787800416D6178780056736B24
:101A90006F6B206D696E0056736B6F6B206D696E96
:101AA00000566D696E00566D696E00566D61786501
:101AB00000566D61786500566D61787A00566D61EB
:101AC000787A00566D61787900566D6178790056A4
:101AD0006D61787800566D617878005A7279772058
:101AE0005665005A727977205665005A72797720C8
:101AF000567A005A72797720567A005A727977208E
:101B0000567879005A727977205678790050727A2F
:101B10007973706965737A656E69650050727A7958
:101B200073706965737A656E696500557374617762
:101B300069656E69610046696C2E204469612E20DA
:101B4000310046696C2E204469612E20310057799E
:101B50006C2E00576C2E200057796C2E00576C2E7F
:101B600020004520696E206D6D33005573746177D8
:101B700069656E69610055737461772E20666162D4
:101B80007279637A6E650057637A7974616A207A34
:101B90002070616D69656369005A617069737A20AC
:101BA000772070616D696563690046696C616D6578
:101BB0006E7400527563680054656D70657261746F
:101BC000757261004D656E7520676C6F776E65008C
:101BD0004D383420582059205A2045004D323400C9
:101BE0004D323320257300052E2E004D656E752075
:101BF000676C6F776E65004272616B206B61727407
:101C000079004D656E75206B6172747920534400C4
:101C100053746F7000577A6E6F7769656E696500EF
:101C20005061757A6100557374617769656E696199
:101C30000050727A79676F74756A005374726F6AB4
:101C4000656E696500456B72616E20676C6F776EBB
:101C5000790000000A0B02090C0D0E0807030401AD
:101C60000000000000000000000000000000000074
:101C70000000000000000000000000000000121141
:101C80001000000000000000000000000000000044
:101C900000000000000000000102102020080810D1
:101CA00020401020408002010201080402010102CC
:101CB00004081020408080402010080402018004A5
:101CC0000201804020100804020108040201010200
:101CD00004081020408001020408102040800505FF
:101CE0000505070508080808020202020A0A080892
:101CF00004040404010101010101010103030303C0
:101D000003030303040707070C0C0C0C0C0C0C0C4E
:101D10000202020206060606060606060B0B0B0B5F
:101D20000B0B0B0B000020002300260029002C00C9
:101D30002F0032000001000003010601090100002C
:101D40002200250028002B002E0031003400020163
:101D50000000050108010B010000210024002700FC
:101D60002A002D00300033000101000004010701AA
:101D70000A01024E414E494E495459494E46CDCC76
:101D8000CC3D0AD7233C17B7D13877CC2B32959569
:101D9000E6241FB14F0A000020410000C842004065
:101DA0001C4620BCBE4CCA1B0E5AAEC59D74C33A1D
:101DB000EEA0C73A11241FBECFEFD1E2DEBFCDBFE8
:101DC00000E00CBF14E0A0E0B2E0EEE1F9E801E0D1
:101DD0000BBF02C007900D92A03BB107D9F722E1DB
:101DE000A0EBB4E001C01D92A537B207E1F71DE1F9
:101DF000C2EBDDE100E006C022970109FE010BBF46
:101E00000E942ABECE3AD10780E00807A9F70E94B7
:101E10001DB90C947EC40C940000EF92FF920F93B6
:101E20001F93CF93DF931F92CDB7DEB78C017B0159
:101E3000460FF70161917F01F8018081918149830B
:101E40000E94C7C3F80180819181019691838083AC
:101E500049814E11EECF0F90DF91CF911F910F91DD
:101E6000FF90EF900895EF92FF920F931F93CF93FF
:101E7000DF931F92CDB7DEB78C017B01460FF801CF
:101E80008081918149830E94BFC3F70181937F01C3
:101E9000F8018081918101969183808349814E115F
:101EA000EECF0F90DF91CF911F910F91FF90EF90A8
:101EB00008950F931F93CF93DF93CDB7DEB72C9781
:101EC0000FB6F894DEBF0FBECDBF80E390E3A0E372
:101ED000B0E08D839E83AF83B88704E610E01C8753
:101EE0000B8744E0BE016B5F7F4FCE010B9695DF01
:101EF00040E16BE171E1CE010B968FDF40E16BE2D7
:101F000071E1CE010B9689DF40E16BE071E1CE011A
:101F10000B9683DF44E063E071E1CE010B967DDF39
:101F200044E06FEF70E1CE010B9677DF44E067E0AD
:101F300071E1CE010B9671DF44E06FEE70E1CE01EE
:101F40000B966BDF44E06BE371E1CE010B9665DF2E
:101F500044E06BEF70E1CE010B965FDF44E067EF8A
:101F600070E1CE010B9659DF44E063EF70E1CE01E2
:101F70000B9653DF4CE063E277E0CE010B964DDF2A
:101F800042E069E372E1CE010B9647DF42E067E38E
:101F900072E1CE010B9641DF42E065E372E1CE01D2
:101FA0000B963BDF42E063E372E1CE010B9635DF37
:101FB00042E061E372E1CE010B962FDF42E06FE277
:101FC00072E1CE010B9629DF44E060E177E0CE01BB
:101FD0000B9623DF44E062E672E0CE010B961DDF34
:101FE00044E06EE572E0CE010B9617DF44E06AE54F
:101FF00072E0CE010B9611DF80E290E09A8789872C
:1020000042E0BE01675F7F4FCE010B9606DF41E0E5
:102010006FE377E0CE010B9600DF44E061E272E00F
:10202000CE010B96FADE86E591E3A3E3B0E0898367
:102030009A83AB83BC831C870B8744E0BE016F5F30
:102040007F4FCE010B96E9DEE8E7F9E08491882323
:1020500041F09091C00095FFFCCF8093C60031966F
:10206000F5CFE2E9F3E08491882341F09091C0003C
:1020700095FFFCCF8093C6003196F5CF8091C000CC
:1020800085FFFCCF8AE08093C6002C960FB6F894AB
:10209000DEBF0FBECDBFDF91CF911F910F9108958D
:1020A000CF93DF93C8E7D9E0FE018491882341F004
:1020B0009091C00095FFFCCF8093C6003196F5CF7C
:1020C000E2E8F3E08491882341F09091C00095FF0D
:1020D000FCCF8093C6003196F5CF8091C00085FF7C
:1020E000FCCF8AE08093C600FE018491E8E7F9E026
:1020F000882349F09091C00095FFFCCF8093C600E3
:1021000031968491F5CF40911B1150911C11609133
:102110001D1170911E118AE793E00E940C194091E5
:102120001F1150912011609121117091221187E7A8
:1021300093E00E940C194091231150912411609159
:1021400025117091261184E793E00E940C194091AB
:102150002711509128116091291170912A1181E75E
:1021600093E00E940C198091C00085FFFCCF8AE0AB
:102170008093C600FE018491E8E7F9E0882349F0E6
:102180009091C00095FFFCCF8093C600319684915A
:10219000F5CFE7E5F3E08491882341F09091C0000A
:1021A00095FFFCCF8093C6003196F5CF8091C0009B
:1021B00085FFFCCF8AE08093C600FE018491E8E7AA
:1021C000F9E0882349F09091C00095FFFCCF8093FF
:1021D000C60031968491F5CF40912B1150912C116E
:1021E00060912D1170912E118EE493E00E940C19D4
:1021F00040912F1150913011609131117091321135
:102200008BE493E00E940C194091331150913411EA
:10221000609135117091361188E493E0FDD74091BB
:102220003711509138116091391170913A1185E44C
:1022300093E0F2D78091C00085FFFCCF8AE08093C5
:10224000C600FE018491E8E7F9E0882349F0909107
:10225000C00095FFFCCF8093C60031968491F5CFE6
:10226000E7E2F3E08491882341F09091C00095FF6C
:10227000FCCF8093C6003196F5CF8091C00085FFDA
:10228000FCCF8AE08093C600FE018491E8E7F9E084
:10229000882349F09091C00095FFFCCF8093C60041
:1022A00031968491F5CF40910B1150910C116091B2
:1022B0000D1170910E118EE193E0BFD740910F1177
:1022C0005091101160911111709112118BE193E0F6
:1022D000B4D7409113115091141160911511709160
:1022E000161188E193E0A9D7409117115091181168
:1022F0006091191170911A1185E193E09ED7809138
:10230000C00085FFFCCF8AE08093C600FE01849167
:10231000E8E7F9E0882349F09091C00095FFFCCFF1
:102320008093C60031968491F5CFE0EEF2E084917F
:10233000882341F09091C00095FFFCCF8093C600A8
:102340003196F5CF8091C00085FFFCCF8AE0809365
:10235000C600FE018491E8E7F9E0882349F09091F6
:10236000C00095FFFCCF8093C60031968491F5CFD5
:102370004091031150910411609105117091061163
:1023800087ED92E049D74091FF1050910011609184
:1023900001117091021184ED92E03ED78091C0004E
:1023A00085FFFCCF8AE08093C600FE018491E8E7B8
:1023B000F9E0882349F09091C00095FFFCCF80930D
:1023C000C60031968491F5CFE1E2F2E08491882352
:1023D00041F09091C00095FFFCCF8093C6003196EC
:1023E000F5CF8091C00085FFFCCF8AE08093C600C6
:1023F000FE018491E8E7F9E0882349F09091C0005C
:1024000095FFFCCF8093C60031968491F5CF409123
:102410000711509108116091091170910A1188E11A
:1024200092E0FAD64091EF105091F0106091F110C7
:102430007091F21085E192E0EFD640913B115091FE
:102440003C1160913D1170913E1182E192E0F5D610
:102450004091FB105091FC106091FD107091FE10A6
:102460008FE092E0D9D64091F7105091F81060912A
:10247000F9107091FA108CE092E0CED64091F310F2
:102480005091F4106091F5107091F61089E092E08F
:10249000C3D68091C00085FFFCCF8AE08093C60040
:1024A000FE018491E8E7F9E0882349F09091C000AB
:1024B00095FFFCCF8093C60031968491F5CFE7EF6E
:1024C000F1E08491882341F09091C00095FFFCCF0A
:1024D0008093C6003196F5CF8091C00085FFFCCF78
:1024E0008AE08093C600FE018491E8E7F9E0882342
:1024F00049F09091C00095FFFCCF8093C6003196C3
:102500008491F5CF409123075091240760912507CE
:10251000709126078EEE91E07FD64091270750916B
:1025200028076091290770912A078BEE91E074D6F5
:1025300040912B0750912C0760912D0770912E0729
:1025400088EE91E069D68091C00085FFFCCF8AE0DB
:102550008093C600FE018491E8E7F9E0882349F002
:102560009091C00095FFFCCF8093C6003196849176
:10257000F5CFEAEDF1E08491882341F09091C0001D
:1025800095FFFCCF8093C6003196F5CF8091C000B7
:1025900085FFFCCF8AE08093C600FE01C491E8E786
:1025A000F9E0CC2349F08091C00085FFFCCFC093B7
:1025B000C6003196C491F5CF4091620250916302FA
:1025C000609164027091650280ED91E025D6609182
:1025D0005E0270915F0280916002909161020E94A0
:1025E0007C7CAB01BC018DEC91E016D660915A0267
:1025F00070915B0280915C0290915D020E94887CE8
:10260000AB01BC018AEC91E007D68091C00085FF48
:10261000FCCF8AE08093C600DF91CF910895AF92FE
:10262000BF92CF92DF92EF92FF920F931F93CF93BF
:10263000DF93CDB7DEB7E0970FB6F894DEBF0FBEDD
:10264000CDBF80E1EFE7F2E0DE01919601900D92BF
:102650008A95E1F780E1EFE8F2E0DE015196019022
:102660000D928A95E1F780E1EFE9F2E0DE01119643
:1026700001900D928A95E1F76E0181E2C80ED11C9E
:102680008BE1E82E81E1F82E8E010F5E1F4F6BE289
:1026900071E1AE014F5F5F4F9BE0A92E91E1B92E32
:1026A00020E030E0F60181919191A191B1916F010B
:1026B000F70181939193A193B1937F01F8018191E7
:1026C0009191A191B1918F01FB0181939193A1937C
:1026D000B193BF01FA0181919191A191B191AF01A3
:1026E000F50181939193A193B1935F012F5F3F4FC8
:1026F00024303105B9F60E94A76980E090E8ABE389
:10270000B5E48093031190930411A0930511B09345
:1027100006118093FF1090930011A0930111B093C4
:1027200002111092071110920811109209111092C3
:102730000A1180E29EE4A0E0B0E080933B11909308
:102740003C11A0933D11B0933E111092EF101092E6
:10275000F0101092F1101092F21080E090E0A0EAD8
:10276000B1E48093FB109093FC10A093FD10B09304
:10277000FE108DEC9CECACECBEE38093F7109093D4
:10278000F810A093F910B093FA1080E090E0A0EA5E
:10279000B0E48093F3109093F410A093F510B093ED
:1027A000F61010922B0710922C0710922D07109202
:1027B0002E071092270710922807109229071092CF
:1027C0002A071092230710922407109225071092CF
:1027D000260788EC90E090933A128093391286E4B1
:1027E00090E0909338128093371210923612109224
:1027F000351280EF90E0909334128093331284E688
:1028000090E0909332128093311210923012109215
:102810002F128AE999E9A1EBB1E4809362029093C7
:102820006302A0936402B093650261E77DE38AE8E6
:102830009FE30E94767C60935E0270935F028093B8
:1028400060029093610260E070E084EE92E40E9486
:10285000827C60935A0270935B0280935C02909337
:102860005D020E94E87380E090E0A0E8BFE38093FF
:10287000560290935702A0935802B09359021092B7
:102880003F0780E090E0A0EEBFE3809321029093A9
:102890002202A0932302B09324020E948624E8E738
:1028A000F9E08491882341F09091C00095FFFCCF1E
:1028B0008093C6003196F5CFEEE8F1E0849188234D
:1028C00041F09091C00095FFFCCF8093C6003196F7
:1028D000F5CF8091C00085FFFCCF8AE08093C600D1
:1028E000E0960FB6F894DEBF0FBECDBFDF91CF915B
:1028F0001F910F91FF90EF90DF90CF90BF90AF901E
:102900000895CF93DF93CDB7DEB72C970FB6F89429
:10291000DEBF0FBECDBF84E690E09C878B8786E547
:1029200091E3A3E3B0E089839A83AB83BC8344E063
:10293000BE016B5F7F4FCE010B9695DA43E050E00E
:10294000BE016B5F7F4FCE0101960E9486C1892B2D
:1029500009F0BFC040E16BE171E1CE010B9683DA73
:1029600040E16BE271E1CE010B967DDA40E16BE074
:1029700071E1CE010B9677DA0E94A76944E063E02B
:1029800071E1CE010B966FDA44E06FEF70E1CE019A
:102990000B9669DA44E067E071E1CE010B9663DAE9
:1029A00044E06FEE70E1CE010B965DDA44E06BE33C
:1029B00071E1CE010B9657DA44E06BEF70E1CE0186
:1029C0000B9651DA44E067EF70E1CE010B964BDADB
:1029D00044E063EF70E1CE010B9645DA4CE063E230
:1029E00077E0CE010B963FDA42E069E372E1CE0177
:1029F0000B9639DA42E067E372E1CE010B9633DAE7
:102A000042E065E372E1CE010B962DDA42E063E32A
:102A100072E1CE010B9627DA42E061E372E1CE016A
:102A20000B9621DA42E06FE272E1CE010B961BDADF
:102A300044E060E177E0CE010B9615DA44E062E60F
:102A400072E0CE010B960FDA44E06EE572E0CE0143
:102A50000B9609DA44E06AE572E0CE010B9603DAE0
:102A600042E0BE01675F7F4FCE010B96FCD941E08B
:102A70006FE377E0CE010B96F6D944E061E272E0B5
:102A8000CE010B96F0D90E9486240E94E873E8E7F5
:102A9000F9E08491882341F09091C00095FFFCCF2C
:102AA0008093C6003196F5CFE0EBF1E08491882366
:102AB00041F09091C00095FFFCCF8093C600319605
:102AC000F5CF8091C00085FFFCCF8AE08093C600DF
:102AD00001C0A5DDE5DA2C960FB6F894DEBF0FBE77
:102AE000CDBFDF91CF9108951F920F920FB60F9235
:102AF00011240BB60F922F933F934F935F936F93D5
:102B00008F939F93EF93FF936091C60020913105BF
:102B100030913205C90101968F779927409133058D
:102B2000509134058417950741F0F901EF54FB4F9C
:102B300060839093320580933105FF91EF919F91CF
:102B40008F916F915F914F913F912F910F900BBE9D
:102B50000F900FBE0F901F9018959A01AB01211591
:102B600081EE38074105510549F182E08093C000AC
:102B700060E079E08DE390E00E94F8BD21503109DA
:102B800041095109CA01B90122E030E040E050E0BA
:102B90000E94F8BD3093C5002093C4008091C1000D
:102BA00080618093C1008091C10088608093C100E2
:102BB0008091C10080688093C10008951092C00088
:102BC00020E130E0E7CF209133053091340580914A
:102BD0003105909132058217930771F0F901EF5496
:102BE000FB4F80812F5F3F4F2F7733273093340582
:102BF0002093330590E008958FEF9FEF0895809123
:102C000033059091340590933205809331050895F2
:102C10004F925F926F927F928F929F92AF92BF92EC
:102C2000CF92DF92EF92FF920F931F93CF93DF9398
:102C3000CDB7DEB7A0970FB6F894DEBF0FBECDBFFD
:102C40005C014115510561057105E9F420E030E0B2
:102C500040E350E060E070E0A0960FB6F894DEBF6D
:102C60000FBECDBFDF91CF911F910F91FF90EF90DD
:102C7000DF90CF90BF90AF909F908F907F906F909C
:102C80005F904F905BC08E010F5F1F4FC12CD12C06
:102C900076014801422E512C612C712C8FEFC81AFD
:102CA000D80AE80AF80ACB01BA01A30192010E94EE
:102CB000D6BDCA01F80161938F01A901BC0141157C
:102CC00051056105710551F7F1E0CF1AD108E1080E
:102CD000F108F401EC0DFD1D80818A3010F440E311
:102CE00001C047E3480F552747FD5095652F752FC5
:102CF00020E030E0C50122D081E0C81AD108E10807
:102D0000F108EFEFCE16DE06EE06FE0611F7A096EE
:102D10000FB6F894DEBF0FBECDBFDF91CF911F91EC
:102D20000F91FF90EF90DF90CF90BF90AF909F906A
:102D30008F907F906F905F904F900895211531058F
:102D400039F48091C00085FFFCCF4093C600089500
:102D50002A30310509F41CC05BCFCF93DF93EC011F
:102D600020E030E04DE050E060E070E0E7DF20E0A0
:102D700030E04AE050E060E070E0CE01DF91CF91BA
:102D8000DDCF9A01AB01662757FD6095762FD6CF30
:102D9000CF92DF92EF92FF92CF93DF93EC016A0123
:102DA0007B0177FF0FC020E030E04DE250E060E0B3
:102DB00070E0C4DFF094E094D094C094C11CD11CA6
:102DC000E11CF11C2AE0B701A601CE01DF91CF91F1
:102DD000FF90EF90DF90CF901BCF2115310539F494
:102DE0008091C00085FFFCCF4093C600089510CFAE
:102DF0009A01462F50E060E070E0EFCFCF93DF9371
:102E0000EC019A01AB0160E070E0E7DFCE01DF91F9
:102E1000CF91A3CF8F929F92AF92BF92CF92DF922A
:102E2000EF92FF921F93CF93DF93EC016A017B0136
:102E3000122F20E030E0A901C701B6010E9405BAB7
:102E400087FF0CC020E030E04DE250E060E070E031
:102E5000CE0174DFF7FAF094F7F8F094B12C60E04B
:102E600070E080E09FE3B11641F020E030E040E206
:102E700051E40E940CBAB394F6CF9B01AC01C70198
:102E8000B6010E942CB96B017C010E9479BA4B01FA
:102E90005C010E94A5BA9B01AC01C701B6010E946A
:102EA0002BB96B017C012AE0B501A401CE01B0DE93
:102EB000112361F0E8E8F4E08191882339F09091E2
:102EC000C00095FFFCCF8093C600F6CF112319F107
:102ED00020E030E040E251E4C701B6010E94DABCD4
:102EE0006B017C010E9474BA4B01AA2497FCA09448
:102EF000BA2CB501A401CE014BDFC501B4010E947B
:102F0000A7BA9B01AC01C701B6010E942BB96B01A6
:102F10007C011150DBCFDF91CF911F91FF90EF909B
:102F2000DF90CF90BF90AF909F908F90089572CF19
:102F3000FC01659175918591949108952F923F922E
:102F40004F925F926F927F928F929F92AF92BF92B9
:102F5000CF92DF92EF92FF920F931F93CF93DF9365
:102F600000D000D0CDB7DEB71C01FC01E75CF64F06
:102F700014919C01220F331F220F331F3E832D8398
:102F8000215D384F4901F9011082118212821382AA
:102F90002BE337E047E357E063E377E08FE297E026
:102FA0000E94D5688D819E81885B964FC1DF6B0141
:102FB0007C01612F772767FD7095872F972F0E94DF
:102FC000A7BA2B013C012D813E812450394F590174
:102FD00020E030E040EC5FE3C701B6010E94DABCBC
:102FE000A30192010E94DABCF501608371838283A0
:102FF00093832D813E81255D3D4F3C832B83F901D9
:10300000608171818281938160930B0270930C02C5
:1030100080930D0290930E0220E030E040E752E4EE
:103020000E940CBA2FE0C22E27E0D22E7B018C0129
:1030300028E037E044E057E060E077E08CEF96E08E
:103040000E94FF5E0E945E72F40110821182128261
:1030500013822BE337E047E357E063E377E08FE247
:1030600097E00E94D5682D813E81245C364F3A83DB
:103070002983C9015DDF9058A30192010E94DABC47
:10308000F501608371838283938320E030E040E721
:1030900052E460910B0270910C0280910D029091AC
:1030A0000E020E940CBA7B018C0128E037E044E05C
:1030B00057E060E077E08CEF96E00E94FF5E0E94B0
:1030C0005E7289819A8134DF9B01AC010E942CB928
:1030D000A30192010E94DABCF501608371838283AF
:1030E000938320E030E040E05FE3EB81FC8160818E
:1030F0007181828193810E94DABC60930B0270938C
:103100000C0280930D0290930E0220E030E040E725
:1031100052E40E940CBA7B018C0128E037E044E0C5
:1031200057E060E077E08CEF96E00E94FF5E0E943F
:103130005E728D819E818C5A964FFADE0D811E81C2
:103140000D5D184FF80120813181428153810E9429
:103150002CB9F40160837183828393838D819E8176
:103160008459964FE5DE2D813E81295E384F7901E5
:10317000F80120813181428153810E942CB9F701ED
:1031800060837183828393838D819E81805A964F61
:10319000CFDE2D813E812F5E3D4F7901F8012081E8
:1031A0003181428153810E942CB9F7016083718380
:1031B00082839383F40180819181A281B381F5019F
:1031C00080839183A283B38310920B0210920C022E
:1031D00010920D0210920E020E948A6AF101EC5EBA
:1031E000F84F81E0808326960FB6F894DEBF0FBEBD
:1031F000CDBFDF91CF911F910F91FF90EF90DF90A6
:10320000CF90BF90AF909F908F907F906F905F9086
:103210004F903F902F900895FC012491222341F07C
:103220003091C00035FFFCCF2093C6000196F4CF4B
:1032300022E030E080EB94E07ACEFC01249122235E
:1032400041F03091C00035FFFCCF2093C6000196BD
:10325000F4CF2AE030E080EB94E0BFCD209151051F
:1032600030915205243031050CF06AC0409153056D
:103270005091540560E6649F9001659F300D1124C4
:10328000BC01C901855A9A4F0E947FC1E8E7F9E065
:103290008491882341F09091C00095FFFCCF8093EA
:1032A000C6003196F5CFEEE2F9E08491882341F033
:1032B0009091C00095FFFCCF8093C6003196F5CF6A
:1032C000809153059091540520E6289FF001299F95
:1032D000F00D1124E55AFA4F8191882339F090912D
:1032E000C00095FFFCCF8093C600F6CFECE2F9E07A
:1032F0008491882341F09091C00095FFFCCF80938A
:10330000C6003196F5CF8091C00085FFFCCF8AE0E2
:103310008093C6008091530590915405019664E016
:1033200070E00E94C3BD9093540580935305809133
:103330005105909152050196909352058093510545
:1033400008952091510530915205243031050CF03B
:103350006AC0409153055091540560E6649F900106
:10336000659F300D1124BC01C901855A9A4F0E94F6
:10337000E6C0E8E7F9E08491882341F09091C0002D
:1033800095FFFCCF8093C6003196F5CFE1E2F9E0DE
:103390008491882341F09091C00095FFFCCF8093E9
:1033A000C6003196F5CF809153059091540520E6E3
:1033B000289FF001299FF00D1124E55AFA4F8191C1
:1033C000882339F09091C00095FFFCCF8093C60010
:1033D000F6CFEFE1F9E08491882341F09091C000AD
:1033E00095FFFCCF8093C6003196F5CF8091C00049
:1033F00085FFFCCF8AE08093C600809153059091B1
:103400005405019664E070E00E94C3BD909354059A
:1034100080935305809151059091520501969093A8
:1034200052058093510508959898A09A0895269A78
:103430002E980895F9DFFBDF40E950ED63E070E07E
:1034400080EB94E08ADBE9E1F9E08491882341F0A4
:103450009091C00095FFFCCF8093C6003196F5CFC8
:103460008091C00085FFFCCF8AE08093C60088E78A
:1034700099E0FC012491222341F03091C00035FFF6
:10348000FCCF2093C6003196F5CF24B720FF14C09F
:10349000E1E1F9E03491332341F04091C00045FF70
:1034A000FCCF3093C6003196F5CF3091C00035FF88
:1034B000FCCF3AE03093C60021FF14C0E1E0F9E010
:1034C0003491332341F04091C00045FFFCCF30934D
:1034D000C6003196F5CF3091C00035FFFCCF3AE001
:1034E0003093C60022FF14C0E0EFF8E0349133239C
:1034F00041F04091C00045FFFCCF3093C6003196AB
:10350000F5CF3091C00035FFFCCF3AE03093C600D4
:1035100023FF14C0E0EEF8E03491332341F04091F2
:10352000C00045FFFCCF3093C6003196F5CF3091F7
:10353000C00035FFFCCF3AE03093C60025FF14C031
:10354000E0EDF8E02491222341F03091C00035FFF6
:10355000FCCF2093C6003196F5CF2091C00025FF07
:10356000FCCF2AE02093C60014BEE9ECF8E02491D9
:10357000222341F03091C00035FFFCCF2093C600DC
:103580003196F5CFE3ECF8E02491222341F030911D
:10359000C00035FFFCCF2093C6003196F5CF2091B7
:1035A000C00025FFFCCF2AE02093C600FC01249137
:1035B000E8E7F9E0222349F03091C00035FFFCCF65
:1035C0002093C60031962491F5CFE3EBF8E02491E7
:1035D000222341F03091C00035FFFCCF2093C6007C
:1035E0003196F5CFEEE9F8E02491222341F03091B5
:1035F000C00035FFFCCF2093C6003196F5CFE2E93D
:10360000F8E02491222341F03091C00035FFFCCF37
:103610002093C6003196F5CFEBE7F8E02491222302
:1036200041F03091C00035FFFCCF2093C6003196A9
:10363000F5CF2091C00025FFFCCF2AE02093C600E3
:10364000E0E7F8E02491222341F03091C00035FFFB
:10365000FCCF2093C6003196F5CFE4E6F8E0249144
:10366000222341F03091C00035FFFCCF2093C600EB
:103670003196F5CF2091C00025FFFCCF2AE02093A2
:10368000C600FC018491E8E7F9E0882349F09091B5
:10369000C00095FFFCCF8093C60031968491F5CF92
:1036A000E5E5F8E08491882341F09091C00095FF12
:1036B000FCCF8093C6003196F5CF0E94B8454AE012
:1036C00050E0BC0180EB94E05CDBEEE3F8E0849139
:1036D000882341F09091C00095FFFCCF8093C600F5
:1036E0003196F5CF4AE050E060ED74E080EB94E075
:1036F00048DB8091C00085FFFCCF8AE08093C60044
:1037000010925705109258051092590510925A05BB
:10371000F8D80E94E3750E94995D0E94CA710E94C8
:103720006A8FFFEF23ED80E3F15020408040E1F706
:1037300000C00000089580914B0590914C0560E019
:1037400070E001960C943DBE80914B0590914C0524
:103750004AE050E060E070E001960C94A5BF682F4D
:10376000772767FD7095209155053091560540E605
:10377000429FC001439F900D1124855A9A4F0E9489
:103780006BC190934C0580934B0521E0892B09F484
:1037900020E0822F08950E94C2B260934705709383
:1037A00048058093490590934A0508950E94C2B246
:1037B00060934705709348058093490590934A05A7
:1037C000E0915505F0915605E95AFA4F8081811133
:1037D00014C0ECE4F4E08491882341F09091C0009F
:1037E00095FFFCCF8093C6003196F5CF8091C00045
:1037F00085FFFCCF8AE08093C600089580EB94E0BB
:10380000FED9EFE4F4E08491882341F09091C00068
:1038100095FFFCCF8093C6003196F5CF4091E0062E
:103820005091E1066091E2067091E3064F5F5F4FB1
:103830006F4F7F4F2AE030E080EB94E07FDA809199
:10384000C00085FFFCCF8AE08093C600AFCF8F9287
:103850009F92AF92BF92CF92DF92EF92FF920F931F
:103860001F93CF93DF9338E1E32E34E0F32E0FE282
:1038700017E0CCEFD6E042E4C42E47E0D42EF701A7
:1038800081917F016CDF882311F155DF4B015C01D1
:10389000F6018081811103C06091DB0601C061E007
:1038A00070E080E090E00E94A7BAF80120813181A9
:1038B000428153810E94DABC9B01AC01C501B40175
:1038C0000E942CB9688379838A839B8309C0F8019D
:1038D00080819181A281B38188839983AA83BB83EC
:1038E0000C5F1F4F2496FFEFCF1ADF0A8CE1E8161A
:1038F00084E0F80621F686E432DF8823D1F01BDF6E
:103900006B017C016093EC067093ED068093EE06EC
:103910009093EF0620E030E0A9010E9408BC181641
:1039200044F4C0920B02D0920C02E0920D02F0928D
:103930000E02DF91CF911F910F91FF90EF90DF90DA
:10394000CF90BF90AF909F908F90089580DF89E4D3
:1039500006DF882351F0EFDE6093F0067093F106E6
:103960008093F2069093F30608C01092F00610922E
:10397000F1061092F2061092F3068AE4F0DE882334
:1039800051F0D9DE6093F4067093F5068093F60645
:103990009093F70608951092F4061092F50610928F
:1039A000F6061092F7060895CF92DF92EF92FF92FB
:1039B000CF93DF93EC01C0901707D0901807E090E9
:1039C0001907F0901A07A7019601688179818A8109
:1039D0009B810E9405BA87FF04C0C882D982EA820F
:1039E000FB82C0901B07D0901C07E0901D07F09051
:1039F0001E07A70196016C817D818E819F810E94A7
:103A000005BA87FF04C0CC82DD82EE82FF8220E00F
:103A100030E0A90160911F07709120078091210774
:103A2000909122070E942CB96B017C019B01AC0193
:103A3000688579858A859B850E9405BA87FF04C0C1
:103A4000C886D986EA86FB86C0901102D090120201
:103A5000E0901302F0901402A70196016881798129
:103A60008A819B810E9408BC181624F4C882D982DE
:103A7000EA82FB82C0901502D0901602E0901702F5
:103A8000F0901802A70196016C817D818E819F8143
:103A90000E9408BC181624F4CC82DD82EE82FF82DC
:103AA000C0901902D0901A02E0901B02F0901C0204
:103AB000A7019601688579858A859B850E9408BC47
:103AC000181624F4C886D986EA86FB86DF91CF9142
:103AD000FF90EF90DF90CF900895CF92DF92EF921A
:103AE000FF920F931F938CEF96E05EDF0E94C2B2AD
:103AF00060934705709348058093490590934A0564
:103B00002091FC063091FD064091FE065091FF0683
:103B100060912F07709130078091310790913207A3
:103B20000E9405BA811179C02091000730910107E8
:103B30004091020750910307609133077091340759
:103B400080913507909136070E9405BA811165C0B2
:103B500020E030E040E752E460910B0270910C02EB
:103B600080910D0290910E020E940CBA5FE0C52E6A
:103B700057E0D52E7B018C0128E037E044E057E088
:103B800060E077E08CEF96E00E94FF5E8091FC069B
:103B90009091FD06A091FE06B091FF0680932F073D
:103BA00090933007A0933107B093320780910007BC
:103BB00090910107A0910207B0910307809333070A
:103BC00090933407A0933507B0933607809104078C
:103BD00090910507A0910607B091070780933707DA
:103BE00090933807A0933907B0933A07809108075C
:103BF00090910907A0910A07B0910B0780933B07AA
:103C000090933C07A0933D07B0933E071F910F91FF
:103C1000FF90EF90DF90CF9008956091290270910E
:103C20002A02882777FD8095982F0E94A7BA2091B5
:103C30000B0230910C0240910D0250910E020E9435
:103C4000DABC20E030E040E752E40E940CBA20E009
:103C500030E048EC52E488CFAF92BF92CF92DF922F
:103C6000EF92FF920F931F93CF93DF93D82F209162
:103C7000F4063091F5064091F6065091F7066091F2
:103C8000F0067091F1068091F2069091F3060E9481
:103C900015BCC62F172F082FF92E6091290270919D
:103CA0002A02882777FD8095982F0E94A7BA209135
:103CB0000B0230910C0240910D0250910E020E94B5
:103CC000DABC20E030E040E752E40E940CBA20E089
:103CD00030E048EC52E40E940CBA20910F072F9379
:103CE000DF93FF920F931F93CF935B016C0162E010
:103CF000E62E01E020E040EF56E06CEF76E08FE248
:103D000097E00E9471568091FC069091FD06A0916B
:103D1000FE06B091FF0680932F0790933007A09383
:103D20003107B09332078091000790910107A0916D
:103D30000207B09103078093330790933407A09351
:103D40003507B09336078091040790910507A0913D
:103D50000607B09107078093370790933807A09321
:103D60003907B0933A078091080790910907A0910D
:103D70000A07B0910B0780933B0790933C07A093F1
:103D80003D07B0933E070E94C2B26093470570930F
:103D900048058093490590934A050F900F900F9026
:103DA0000F900F900F90DF91CF911F910F91FF9087
:103DB000EF90DF90CF90BF90AF900895F8940E945D
:103DC0006D765F9A109214078A9A109215079FB722
:103DD000F894809108018160809308019FBF109240
:103DE0001607129A60E08CE00E94ADB4EEE7F9E0AD
:103DF0008491882341F09091C00095FFFCCF80937F
:103E0000C6003196F5CFEDE2F4E08491882341F0CD
:103E10009091C00095FFFCCF8093C6003196F5CFFE
:103E20008091C00085FFFCCF8AE08093C60085E2C8
:103E300094E00E94088F7894C6E0D0E0219749F082
:103E400068EC70E080E090E00E94F1B20E94888F00
:103E5000F5CFF894FFCF2F923F924F925F926F92DF
:103E60007F928F929F92AF92BF92CF92DF92EF920A
:103E7000FF920F931F93CF93DF93CDB7DEB76E976B
:103E80000FB6F894DEBF0FBECDBFA0E6BA2EB4E0E9
:103E9000EB2EF12C14E0C12E17E0D12E0AE0A02E5B
:103EA00099249394809131059091320520913305A6
:103EB00030913405821B930B8F779927892B09F456
:103EC00018C2809151059091520504970CF011C2CF
:103ED00080EB94E00E94E3158093500520914E05FD
:103EE00030914F058A3061F08D3051F08A3321F4E2
:103EF00090914D05992321F02F3531050CF41BC10C
:103F00002115310509F435C180915305909154056F
:103F1000B89E3001B99E700C1124F301E20FF31F1B
:103F2000E55AFA4F108220914D052111FFC0FC0186
:103F3000E95AFA4F10828301055A1A4F6EE470E075
:103F4000C8010E946BC10097F1F190934C058093DA
:103F50004B05801B910B860D971D4AE050E060E0F9
:103F600070E0845A9A4F0E94A5BF6093E406709354
:103F7000E5068093E6069093E7064090E0065090B1
:103F8000E1066090E2067090E3062FEF421A520AB3
:103F9000620A720A00915305109154056415750563
:103FA0008605970509F4E8C0B09EC001B19E900D4A
:103FB000112460E278E0855A9A4F0E941DC1892B36
:103FC00009F0DAC069C16AE270E0C8010E946BC101
:103FD000892B09F444C0EEE7F9E08491882341F08D
:103FE0009091C00095FFFCCF8093C6003196F5CF2D
:103FF000EAE7F7E08491882341F09091C00095FFB3
:10400000FCCF8093C6003196F5CF4091E0065091E9
:10401000E1066091E2067091E3062AE030E080EB71
:1040200094E00E949E168091C00085FFFCCF8AE03C
:104030008093C60010924F0510924E05C0C2809129
:10404000E4069091E506A091E606B091E70680931C
:10405000E0069093E106A093E206B093E306809118
:10406000530590915405B89E8001B99E100D1124FE
:10407000C801855A9A4F3C0167E470E00E946BC109
:10408000009781F190934C0580934B058619970911
:10409000800F911F60E070E0845A9A4F0E943DBEED
:1040A0000E9474BA64307105E8F480913905882360
:1040B000C9F0F6018491E4E0F7E0882349F090919B
:1040C000C00095FFFCCF8093C60031968491F5CF58
:1040D0008091C00085FFFCCFA092C60087EF96E0DC
:1040E0000E94FB8E0091530510915405B09EC001B3
:1040F000B19E900D11246FEE72E0855A9A4F0E9486
:1041000076C1892B09F45ADEC8010196B7010E94D5
:10411000C3BD9093540580935305809151059091B0
:1041200052050196909352058093510510924F05C8
:1041300010924E05B7CE8B3311F490924D059091AD
:104140004D059111AFCE4091530550915405B901E1
:104150006F5F7F4F70934F0560934E05B49EF001E3
:10416000B59EF00D1124E20FF31FE55AFA4F80833C
:1041700099CE10924D0523C2B09E3001B19E700CB5
:104180001124C301855A9A4F1C016AE270E00E9413
:104190006BC1009789F5EEE7F9E08491882341F03F
:1041A0009091C00095FFFCCF8093C6003196F5CF6B
:1041B000E4EAF7E08491882341F09091C00095FFF4
:1041C000FCCF8093C6003196F5CF4091E006509128
:1041D000E1066091E2067091E3062AE030E080EBB0
:1041E00094E00E949E168091C00085FFFCCF8AE07B
:1041F0008093C60003DB1ECF20E010E0F301E20F46
:10420000F11DE55AFA4F30813A3219F02F5F13272A
:10421000F5CF90934C0580934B0582199309860D39
:10422000971D60E070E0845A9A4F0E943DBE0E9444
:1042300074BA212F30E02617370709F400CFEEE7D4
:10424000F9E08491882341F09091C00095FFFCCF64
:104250008093C6003196F5CFEEECF7E08491882389
:1042600041F09091C00095FFFCCF8093C60031963D
:10427000F5CF4091E0065091E1066091E206709121
:10428000E3062AE030E080EB94E00E949E168091E5
:10429000C00085FFFCCFABCFEEE7F9E08491882327
:1042A00041F09091C00095FFFCCF8093C6003196FD
:1042B000F5CFEDEEF7E08491882341F09091C000B6
:1042C00095FFFCCF8093C6003196F5CF4091E00674
:1042D0005091E1066091E2067091E3062AE030E039
:1042E00080EB94E00E949E168091C00085FFFCCF79
:1042F0007ECF80914807882309F461C180914E05E3
:1043000090914F05892B09F05AC1809151059091E8
:104310005205892B11F410923705E8EE2E2EE3E0BA
:104320003E2E412C512CFCE3CF2ED12CE12CF12C34
:104330008E010F5F1F4F70E6672E772473944091B4
:10434000C9095091CA096091CB097091CC0980913B
:10435000C1099091C209A091C309B091C40948173D
:1043600059076A077B0708F02AC18091510590918F
:10437000520504970CF023C18091370581111FC1AC
:1043800080911C0990911D09A0911E09B0911F09EF
:104390008093C9099093CA09A093CB09B093CC0923
:1043A00084E199E00E948A3F482F809350058A302B
:1043B000B9F04D30A9F0433229F420914D05211177
:1043C00003C00EC04A33C9F320914E0530914F050A
:1043D0002F3531052CF48F3FFFEF9F0709F0D1C037
:1043E0004091C9095091CA096091CB097091CC09DB
:1043F0008091C1099091C209A091C309B091C409EB
:10440000481759076A077B0708F481C0E4EEF6E015
:104410008491882341F09091C00095FFFCCF809358
:10442000C6003196F5CF8091C00085FFFCCFFAE041
:10443000F093C6000E94C2B260933B0570933C05A6
:1044400080933D0590933E0580903F0590904005F8
:10445000A0904105B0904205681979098A099B0925
:10446000A20191010E94D6BD49015A01CA01B901B8
:10447000A70196010E94D6BDCA01B901A701960104
:104480000E94D6BD7F936F93C501B40120E13EE049
:1044900040E050E00E94D6BD3F932F93A0EDB6E0E0
:1044A000BF93AF931F930F930E94A3C1E8E7F9E076
:1044B00084910FB6F894DEBF0FBECDBF882349F0BC
:1044C0009091C00095FFFCCF8093C60031968491F7
:1044D000F5CFF8018191882339F09091C00095FFC4
:1044E000FCCF8093C600F6CF8091C00085FFFCCF43
:1044F0003AE03093C600C8010E94188C86E497E029
:104500000E94F55561E086E497E00E942D5080916D
:104510005005833211F47092370520914E05309189
:104520004F052115310509F424CE80915305909152
:104530005405689EF001699EF00D1124E20FF31FEF
:10454000E55AFA4F1082FC01E95AFA4F7082209125
:104550005105309152052F5F3F4F30935205209304
:104560005105019664E070E00E94C3BD909354052C
:104570008093530510924D0510924F0510924E05F1
:10458000DECE4B3311F470924D0540914D05411133
:10459000D2CE4091530550915405B9016F5F7F4FC2
:1045A00070934F0560934E05649EF001659EF00D7B
:1045B0001124E20FF31FE55AFA4F8083C0CE6E96A6
:1045C0000FB6F894DEBF0FBECDBFDF91CF911F9124
:1045D0000F91FF90EF90DF90CF90BF90AF909F90A2
:1045E0008F907F906F905F904F903F902F900895A5
:1045F000CF92DF92EF92FF920F931F93CF93C82F2A
:10460000809151059091520503970CF424DC0E948F
:10461000C2B20091430510914405209145053091A7
:104620004605C0904705D0904805E0904905F090B8
:104630004A056C197D098E099F0906171707280777
:10464000390728F4012B022B032B09F0B7DB40912B
:104650000702509108026091090270910A02452BED
:10466000462B472B19F10E94C2B2009147051091C9
:1046700048052091490530914A05601B710B820B5A
:10468000930B0091070210910802209109023091CA
:104690000A02061717072807390740F49091E60B1E
:1046A0008091E50B981302C0CC2309F18091350568
:1046B00090913605909902C0019604C0181619060B
:1046C0002CF401979093360580933505809135053C
:1046D00090913605803197420CF0B8CFCF911F9161
:1046E0000F91FF90EF90DF90CF900C94E25E5F9A75
:1046F000109214078A9A109215079FB7F894809128
:1047000008018160809308019FBF10921607129ADA
:10471000CDCF0E946D7680913905811138C081E03E
:10472000809339058091E0069091E106A091E20620
:10473000B091E3068093DC069093DD06A093DE063D
:10474000B093DF06EEE7F9E08491882341F0909181
:10475000C00095FFFCCF8093C6003196F5CFEFEAFD
:10476000F3E08491882341F09091C00095FFFCCF45
:104770008093C6003196F5CF8091C00085FFFCCFB5
:104780008AE08093C60082EA93E00C94FB8E089541
:10479000809139050895CF93DF93EC0180910F0745
:1047A00080933A0584E50E94AF1B811102C080E02E
:1047B00075C00E949B1B0E9479BA60933A056623DC
:1047C000B1F3E8E7F9E08491882341F09091C000CB
:1047D00095FFFCCF8093C6003196F5CFCD36D1053D
:1047E000B9F054F4C836D105B1F0C936D10509F095
:1047F00045C0E9E3F3E021C0CA3DD10531F0CD3D2C
:10480000D105E1F5E4EFF2E036C0EBE0F3E029C0DA
:10481000E2E2F3E01CC0E0E5F3E08191882371F16E
:104820009091C00095FFFCCF8093C600F6CF909189
:10483000C00095FFFCCF8093C60081918111F7CF16
:104840001DC09091C00095FFFCCF8093C600819160
:104850008111F7CF13C09091C00095FFFCCF8093DA
:10486000C60081918111F7CF09C09091C00095FFDA
:10487000FCCF8093C60081918111F7CF40E050E0DA
:1048800060913A0580EB94E00E94F8168091C00098
:1048900085FFFCCF8AE08093C60081E0DF91CF9155
:1048A0000895CF92DF92EF92FF9220913F0722234B
:1048B000F1F020E030E040E05FE30E94DABC6B0101
:1048C0007C0120E030E0A9010E9405BA882379F03C
:1048D000A7019601C701B6010E94DABC2BED3FE0AB
:1048E00049E450E40E94DABC9B01AC0104C020E022
:1048F00030E040E85FE360E070E080E89FE30E9422
:104900000CBAFF90EF90DF90CF9008956091210254
:10491000709122028091230290912402C2DF609361
:104920001D0270931E0280931F029093200208952F
:104930003F924F925F926F927F928F929F92AF922F
:10494000BF92CF92DF92EF92FF920F931F93CF937C
:10495000DF93CDB7DEB7E0970FB6F894DEBF0FBE9A
:10496000CDBF87E40E94AF1B882309F417C20E94C1
:104970009B1B0E9474BA6430710509F43EC044F474
:104980006230710521F174F577FF17C00C9443383C
:104990006A35710509F4AEC134F46C31710509F45E
:1049A00074C00C9443386B35710509F4A7C16C359C
:1049B000710509F4A8C10C9443388091390581111F
:1049C0000C9443380E94271C88D80C94433880915B
:1049D000390581110C9443380E94A61C81E03CD912
:1049E0000C9443388091390581110C9443380E940E
:1049F000A61C80E031D90C94433887EC96E00E94E5
:104A0000FB8E80E50E94AF1B882339F00E949B1B20
:104A10000E9479BA4B015C0103C0812C912C540196
:104A200083E50E94AF1B882361F00E949B1B20E05E
:104A300030E04AE754E40E94DABC0E9479BA4B01A4
:104A40005C010E945E720E94C2B26B017C01C80CC4
:104A5000D91CEA1CFB1C0E94C2B2609347057093EC
:104A600048058093490590934A050E94C2B26C158F
:104A70007D058E059F0510F00C9443380E940A7442
:104A800080E0B6DD0E94888FF0CF80910B0290917C
:104A90000C02A0910D02B0910E028093E806909353
:104AA000E906A093EA06B093EB0680912902909163
:104AB0002A02909341078093400784E690E0909308
:104AC0002A02809329020E94C2B260934705709324
:104AD00048058093490590934A0581E00E94916AB8
:104AE00080912F0790913007A0913107B091320744
:104AF0008093FC069093FD06A093FE06B093FF06FC
:104B00008091330790913407A0913507B091360713
:104B10008093000790930107A0930207B0930307C7
:104B20008091370790913807A0913907B0913A07E3
:104B30008093040790930507A0930607B093070797
:104B400080913B0790913C07A0913D07B0913E07B3
:104B50008093080790930907A0930A07B0930B0767
:104B600010920B0210920C0210920D0210920E0283
:104B700088E50E94AF1B882311F090E00AC089E508
:104B80000E94AF1B8111F9CF8AE50E94AF1B91E013
:104B9000982790930F0291110C94463888E50E9453
:104BA000AF1B81110C94463880910F0281110C9437
:104BB0004C3889E50E94AF1B81110C944C3888E574
:104BC0000E94AF1B8823D1F00E94A41B672B682B87
:104BD000692BA1F00E949B1B209123073091240791
:104BE00040912507509126070E942CB960932F070A
:104BF00070933007809331079093320789E50E94C4
:104C0000AF1B8823D1F00E94A41B672B682B692B54
:104C1000A1F00E949B1B209127073091280740910B
:104C2000290750912A070E942CB96093330770938B
:104C30003407809335079093360780910F028111D6
:104C40000C9452388AE50E94AF1B81110C945238A3
:104C50008AE50E94AF1B8823D1F00E94A41B672B1A
:104C6000682B692BA1F00E949B1B20912B07309190
:104C70002C0740912D0750912E070E942CB960936C
:104C80003707709338078093390790933A072BE3DF
:104C900037E047E357E063E377E08FE297E00E9475
:104CA000D56880E00E94916A8091E8069091E906BB
:104CB000A091EA06B091EB0680930B0290930C0250
:104CC000A0930D02B0930E0280914007909141078E
:104CD00090932A02809329020E94C2B260934705F2
:104CE000709348058093490590934A050E948A6A0B
:104CF0000C9443381092DB060C94433881E0809387
:104D0000DB060C94433885E40E94AF1B811102C07E
:104D10000E945E7268E1C62E64E0D62E73E2E72E32
:104D200077E0F72E0FE217E0B12CF60181916F01C9
:104D30000E94AF1B882339F1F3E0BF120CC00E9420
:104D40009B1BF80160837183828393838BE397E0DD
:104D50000E947A6918C00E949B1BF7012081318153
:104D6000428153810E942CB9F80160837183828350
:104D700093832BE337E047E357E063E377E08FE289
:104D800097E00E94D568B394F4E0EF0EF11C0C5F3D
:104D90001F4F24E0B212C9CF0C9443388DE40E9417
:104DA000AF1B882311F40C9472370E949B1B0E9446
:104DB00074BA6037710509F46FC40CF08FC06F319D
:104DC000710509F47EC3A4F56631710509F422C2A8
:104DD000BCF46131710509F4D8C134F46230710555
:104DE00008F434C10C9443386431710509F4DEC110
:104DF0000CF00AC26231710509F480C70C94433883
:104E00006A31710509F43AC23CF46831710509F45C
:104E10001FC20CF405C22CC26C31710509F442C2E8
:104E20000CF43AC26E31710509F471C20C94433826
:104E30006435710509F462C794F56035710509F4AC
:104E400047C754F46032710509F49FC26A32710594
:104E500009F4BEC30C9443386235710509F445C7A3
:104E60000CF047C70E946D760E945E72129A0E94F3
:104E7000C77210920E0710920D0768EE73E080E083
:104E800090E00E94F1B2269A2E9A1092100287EDBD
:104E900095E00E94FB8E0E94888F0C9443386936FF
:104EA000710509F40CC474F46C35710509F479C703
:104EB0006836710509F4D3C36535710511F00C949A
:104EC000433854C76B36710509F4FCC60CF4CAC6E6
:104ED0006D36710509F4FFC40C9443386C3D7105BF
:104EE00011F40C9490320CF054C06C38710509F434
:104EF000D5C324F56537710509F4E1C764F4623759
:104F0000710509F4F0C76337710511F00C9443384B
:104F1000EFEFF4E0CFC76837710511F40C9452300D
:104F20006937710511F40C9456306737710511F02B
:104F30000C944338E6E7F3E00C9460306B3C710569
:104F400011F40C94DF3184F4683C710511F40C9475
:104F50004D31693C710511F40C94BF316E3B710504
:104F600011F00C94433873C56D3C710511F40C9429
:104F70001B3214F40C94FB316E3C710511F00C944F
:104F8000433808E114E083E2E82E87E0F82E0C9421
:104F90008132643F31E0730711F40C9462345CF5A4
:104FA0006D3291E0790711F40C94563394F4623E1B
:104FB000710511F40C94C5326C32F1E07F0711F4E5
:104FC0000C9420336D3D710511F00C9443380C9412
:104FD0009F326F3221E0720711F40C942A3414F4DA
:104FE0000C941C346039714011F00C9443380E94C9
:104FF0005E720C944338683592E0790711F40C9492
:10500000403594F4663FF1E07F0711F40C94683466
:1050100014F40C946534673F714011F00C944338DC
:105020000E9450100C944338603A83E0780709F4EA
:1050300015C2673E93E0790711F40C945B37633532
:10504000734011F00C9443380C946B3400914B0571
:1050500010914C050E5F1F4F80E50E94AF1B882307
:1050600079F00E949B1B0E9479BA6B017C01BB24E2
:10507000B394611571058105910531F4B12C04C01B
:10508000B12CC12CD12C760183E50E94AF1B882363
:1050900099F00E949B1B20E030E04AE754E40E9414
:1050A000DABC0E9479BA6B017C01AA24A394611531
:1050B00071058105910509F4A12C6AE270E0C8012F
:1050C0000E946BC1009711F0FC011082F801CF0122
:1050D00021912032E1F3B11007C0A11005C02223B5
:1050E00019F00E94188C04C088EB96E00E94FB8E99
:1050F00081E00E94F88B0E945E720E94C2B26093AF
:105100004705709348058093490590934A05C1145B
:10511000D104E104F104A9F00E94C2B24B015C0188
:105120008C0C9D1CAE1CBF1C0E94C2B26815790578
:105130008A059B05B8F40E944C90811113C00C9411
:1051400058380E944A90882311F40C9443380E94E6
:105150004C9081110AC00E940A7480E049DA0E94D2
:10516000888FF5CF80E00E94F88B809148078823D4
:1051700031F087EA96E00E94FB8E0C94433886E972
:1051800096E00E94FB8E0C9443388BE896E00E94D8
:10519000FB8E5F988A989FB7F894809108018E7F64
:1051A000809308019FBF12980C944338EBE7F6E018
:1051B0008491882341F09091C00095FFFCCF8093AB
:1051C000C6003196F5CF8091C00085FFFCCF8AE004
:1051D0008093C60086E497E00E949B4CEDE6F6E0E3
:1051E0008491882341F09091C00095FFFCCF80937B
:1051F000C6003196F5CF8091C00085FFFCCF8AE0D4
:105200008093C6000C94433886E497E00E94F44CE7
:105210000C94433886E497E00E94B84D0C944338D0
:1052200000914B0510914C050C5F1F4F6AE270E036
:10523000C8010E946BC1009711F0FC01108221E0AF
:1052400041E0B80186E497E00E9491510C94433804
:1052500086E497E00E94BC4D0E94C2B260933F0575
:105260007093400580934105909342050C94433818
:1052700086E497E00E94C34D0C944338809149071F
:10528000882311F40C94433883E50E94AF1B8111ED
:105290000C9461380C94433886E497E00E94674F81
:1052A0000C94433880914B0590914C056AE270E074
:1052B00004960E946BC18C010097D9F0209155058E
:1052C0003091560540E6429FC001439F900D112446
:1052D0006EE470E0855A9A4F0E946BC160E270E004
:1052E0000E946BC1019690934C0580934B05F80189
:1052F000108260914B0570914C056C5F7F4F21E0EF
:1053000040E086E497E00E9491510C9443388091EC
:105310004907882311F40C94433860E086E497E051
:105320000E94215180914B0590914C056AE270E0FA
:1053300004960E946BC18C010097D9F0209155050D
:105340003091560540E6429FC001439F900D1124C5
:105350006EE470E0855A9A4F0E946BC160E270E083
:105360000E946BC1019690934C0580934B05F80108
:10537000108260914B0570914C056C5F7F4F86E405
:1053800097E00E94274E0C94433880914807811182
:105390000E945E7200914B0510914C050C5F1F4FEF
:1053A0006AE270E0C8010E946BC17C0161E270E0BA
:1053B000C8010E946BC1009719F08C010F5F1F4F4D
:1053C000E114F10411F0F701108280E50E94AF1B97
:1053D000F82E20914B0530914C050217130708F465
:1053E000F12C80914907882311F40C94433821E073
:1053F0002F2541E0B80186E497E00E94915183E5B2
:105400000E94AF1B8823B9F020914B0530914C05C9
:105410002017310780F40E94A41BAB01BC0140930C
:10542000C9095093CA096093CB097093CC0984E1F0
:1054300099E00E94534086E497E00E94BC4DF11031
:105440000C9443380E94C2B260933F0570934005AC
:1054500080934105909342050C94433880914B050D
:1054600090914C056AE270E005960E946BC18C0138
:105470000097D9F0209155053091560540E6429F9E
:10548000C001439F900D11246EE470E0855A9A4F3D
:105490000E946BC160E270E00E946BC10196909324
:1054A0004C0580934B05F801108260914B0570917B
:1054B0004C056B5F7F4F86E497E00E94B0540C94DC
:1054C00043380E94C2B260933B0570933C058093C1
:1054D0003D0590933E0500913F05109140052091B8
:1054E000410530914205601B710B820B930B28EE36
:1054F00033E040E050E00E94D6BDCA01B9012CE380
:1055000030E040E050E00E94D6BD7F936F933F9320
:105510002F938EE596E09F938F93CE0101969F93F4
:105520008F930E94A3C1E8E7F9E084910FB6F89445
:10553000DEBF0FBECDBF882349F09091C00095FF1C
:10554000FCCF8093C60031968491F5CFFE01319651
:105550008191882339F09091C00095FFFCCF809312
:10556000C600F6CF8091C00085FFFCCF8AE0809313
:10557000C600CE0101960E94188C8091BA10882333
:1055800011F40C9443381092BA1000910F0710E0F8
:10559000000F111F09521E4EF8016081718188278A
:1055A00077FD8095982F0E94A7BA209143023091F1
:1055B000440240914502509146020E9408BC1816D0
:1055C00014F00C944338F801118210820C94433883
:1055D00083E50E94AF1B882311F40C9443380E948A
:1055E0009B1B0E9474BAF62EE72E862F9E2D8C01EF
:1055F00080E50E94AF1B882331F00F3F110509F0B1
:1056000010F40C9471380DE010E0E0EEF3E08191BD
:1056100091918017910711F40C94433824E0E831FC
:10562000F207A9F70930110539F48F2D9E2D9093BB
:105630000E0780930D0704C017FF02C00C94433877
:1056400061E0802F0E94ADB46F2D802F0E94E6B4E0
:105650006F2D7E2D802F0E9495B30C94433888E6E1
:1056600090E099D881110C94433883E50E94AF1BD8
:10567000882371F000913A050E949B1B10E0000FF7
:10568000111F09521E4E0E9474BAF8017183608383
:105690000E946C760C9443380E94DE1E83E50E94C3
:1056A000AF1B882311F40C9443380E949B1B0E946B
:1056B00074BA7093D6116093D5110C94433889E66F
:1056C00090E069D881110C944338E8E5F6E08491C4
:1056D000882341F09091C00095FFFCCF8093C600D5
:1056E0003196F5CFE0913A0524E0E29FF0011124D4
:1056F000E153FE4E408151816281738121E030E0AF
:1057000080EB94E00E949717E5E5F6E0849188230A
:1057100041F09091C00095FFFCCF8093C600319678
:10572000F5CFE0913A05F0E0EE0FFF1FE952FE4E93
:1057300060817181882777FD8095982F0E94A7BA94
:10574000AB01BC0121E030E080EB94E00E949717B0
:10575000E1E5F6E08491882341F09091C00095FF47
:10576000FCCF8093C6003196F5CF4091C91150917E
:10577000CA116091CB117091CC1121E030E080EB27
:1057800094E00E949717EEE4F6E08491882341F0BC
:105790009091C00095FFFCCF8093C6003196F5CF65
:1057A0006091D5117091D611882777FD8095982F3B
:1057B0000E94A7BAAB01BC0121E030E080EB94E08D
:1057C0000E949717EBE4F6E08491882341F09091D2
:1057D000C00095FFFCCF8093C6003196F5CF4AE01C
:1057E00050E060E070E080EB94E00E94C116E9E4D4
:1057F000F6E08491882341F09091C00095FFFCCFA2
:105800008093C6003196F5CF4091CF115091D011C1
:105810006091D1117091D21121E030E080EB94E0E1
:105820000E949717E6E4F6E08491882341F0909176
:10583000C00095FFFCCF8093C6003196F5CF6091F4
:10584000D7117091D811882777FD8095982F0E94E5
:10585000A7BAAB01BC0121E030E080EB94E00E94EC
:105860009717E2E4F6E08491882341F09091C0001C
:1058700095FFFCCF8093C6003196F5CF80913A0515
:1058800090E00E94FF734AE050E0BC0180EB94E09E
:105890000E94C116EDE3F6E08491882341F09091D7
:1058A000C00095FFFCCF8093C6003196F5CF8FEFF7
:1058B0009FEF0E94FF734AE050E0BC0180EB94E050
:1058C0000E94C1168091C00085FFFCCF8AE08093C2
:1058D000C6000C94CE398DE690E00E94CB23811156
:1058E0000C94433882E396E00E94FB8E1092BA102B
:1058F00083E50E94AF1B882391F000913A050E9436
:105900009B1B10E0000F111F09521E4E0E9474BA1B
:10591000F8017183608381E08093060215C082E5FF
:105920000E94AF1B882381F000913A050E949B1BC7
:1059300010E0000F111F09521E4E0E9474BAF801A8
:10594000718360831092060283E50E94AF1B882357
:1059500051F00E949B1B609343027093440280931A
:1059600045029093460282E40E94AF1B882351F0C7
:105970000E949B1B609347027093480280934902E8
:1059800090934A0286E40E94AF1B882369F00E942C
:105990009B1B60933F02709340028093410290935F
:1059A000420281E08093BA100E946C760E94C2B2DB
:1059B0004B015C0100913A0510E0F801EE0FFF1F6A
:1059C000E952FE4E60817181882777FD8095982F7E
:1059D0000E94A7BAF801EE0FFF1FEE0FFF1FE15361
:1059E000FE4E11E020813181428153810E9408BC2A
:1059F00018160CF010E01093380510920C07CC2408
:105A0000CA94DC2C760148EE442E43E0542E612CDF
:105A1000712C5AE0352E80910C0781110C94783846
:105A2000FFEFCF16DF06EF06FF0611F40C94913856
:105A3000F7FE02C00C9478380E94C2B26C197D093E
:105A40006031774210F40C9491380C9478388CE0E3
:105A500096E00E94FB8E83E50E94AF1B882361F0D5
:105A60000E949B1B0E9474BA7093D6116093D5114B
:105A700081E0809306020FC082E50E94AF1B88235D
:105A800051F00E949B1B0E9474BA7093D6116093D0
:105A9000D511109206020E94C2B24B015C01109215
:105AA0000C076091D5117091D611882777FD8095EC
:105AB000982F0E94A7BA11E02091C9113091CA1104
:105AC0004091CB115091CC110E9408BC18160CF0DB
:105AD00010E01093380509E016E065E0E62E66E078
